:10000000F85906203DAF030029AE0300496B0000FC
:1000100039AF030039AF030039AF030039AF030034
:1000200000000000000000000000000039AF0300E5
:1000300039AF0300000000008B6A0000D5500800B3
:10004000FD73030031730300E17403005175030075
:100050009D6D0300296F030039A20300259A030058
:10006000B99D03005985030085840300499203006C
:100070007D7E0300117E0300F57E0300617F030097
:100080007D7E0300117E0300F57E0300617F030087
:1000900085A80300A5A9030091AB0300A5A903004F
:1000A00091AB03007D7E0300117E0300F57E03000B
:1000B000617F0300098C0300098C0300098C030095
:1000C000098C0300FD73030031730300E174030026
:1000D000517503009D9A0300754F03007D50030086
:1000E000F1830300598403009D6D0300296F030011
:1000F00039A20300915903002D5A0300F55A030059
:10010000995B0300098C0300FD7303003173030046
:10011000E1740300517503000000000000000000BE
:1001200000000000000000000000000000000000CF
:1001300000000000000000000000000000000000BF
:1001400000000000000000000000000000000000AF
:10015000000000000000000000000000000000009F
:10040000FFFFFFFFFFFDFFFFFCFFFFFFFFFFFFFF01
:10041000FCFFFFFFFFFFFFFFFCFFFF00FFFFFF00F0
:10042000FCFF0F20FFFF0F20FCFF7F40FFFF7F40FE
:10043000FCFF0D40FFFF0D40FFFFFFFFFFFFFFFF31
:10044000FFFFFFFFFFFFFFFFFFFFFFFFFFFFFFFFBC
:10045000FFFFFFFFFFFFFFFFFFFFFFFFFFFFFFFFAC
:10046000FFFFFFFFFFFFFFFFFFFFFFFFFFFFFFFF9C
:10047000FFFFFFFFFFFFFFFFFFFFFFFFFFFFFFFF8C
:10048000FFFFFFFFFFFFFFFFFFFFFFFFFFFFFFFF7C
:10049000FFFFFFFFFFFFFFFFFFFFFFFFFFFFFFFF6C
:1004A000FFFFFFFFFFFFFFFFFFFFFFFFFFFFFFFF5C
:1004B000FFFFFFFFFFFFFFFFFFFFFFFFFFFFFFFF4C
:1004C000FFFFFFFFFFFFFFFFFFFFFFFFFFFFFFFF3C
:1004D000FFFFFFFFFFFFFFFFFFFFFFFFFFFFFFFF2C
:1004E000FFFFFFFFFFFFFFFFFFFFFFFFFFFFFFFF1C
:1004F000FFFFFFFFFFFFFFFFFFFFFFFFFFFFFFFF0C
:1005000010B5054C237833B9044B13B10448AFF34D
:1005100000800123237010BD000EFE1F00000000AC
:10052000145C1800084B10B51BB108490848AFF31C
:1005300000800848036803B910BD074B002BFBD0AF
:10054000BDE81040184700BF00000000040EFE1F69
:10055000145C1800B40DFE1F0000000008B502482E
:1005600002F0DEFC002008BD2C0EFE1F2DE9F0413C
:10057000DFF85880D8F8003003B3114F114E124DF8
:100580003B78002493B105EB440215F814305278FF
:100590000C487372327400F08FFC40F6B83005F0EE
:1005A000A7FE01343B78E4B2A342ECD842F21070CB
:1005B00005F09EFED8F80030002BE1D1BDE8F081B7
:1005C0008C0EFE1F8001FE1F500EFE1F4C0EFE1FE4
:1005D0002DE98048DFF87492DFF80483DFF884A205
:1005E0008A4EDFF800B38A4D83B046E089498848D7
:1005F00003F008FD48B988498848042203F0B0FB9D
:10060000874B8849186859F091FD03228649804834
:1006100003F0F8FC044688B9EA78652A00F0858082
:1006200033788248697900F81310303A00EB4301BF
:100630008BF800200133EA7933704A707C497448A2
:1006400003F000FD002805DB7A49714803F0FAFC4D
:1006500000285DDD78496E4803F0F4FC28B1774945
:100660006B4803F0EFFC002849D1754800F024FCEA
:10067000744802F055FC00F0D3FB4FF0FF31724894
:1006800002F03EFA1023714AD8F80000002100F071
:100690006BFF99F804206E496E4B5D4803F080FFB4
:1006A00006226D495A4803F0ADFCF8B1DAF8003083
:1006B0007BB108225649694803F052FB0024684880
:1006C00021460A2284728CF061FF28F053F8654BB2
:1006D0001C60042264494E4803F094FC0422002864
:1006E00084D14D49614803F03BFB8EE7022260490B
:1006F0005B4803F035FB0123CAF80030E9E75D49A8
:10070000434803F09FFC38B95B4800F0D5FBB2E7E3
:100710005A4802F005FCAEE759493D4803F092FC07
:10072000B8B9584800F0C8FBA5E7574F57494FF0F4
:10073000010E162205238DE80C0002464FF40063DB
:10074000C7F800E0524805F08BFB05F0C5FA34709D
:1007500074E750492E4803F075FC18B94E4800F074
:10076000ABFB88E74D492A4803F06CFC18B94C48AC
:1007700000F0A2FB7FE74B49254803F063FC18B962
:10078000494800F099FB76E74849214803F05AFCB4
:1007900018B9474800F090FB6DE746491C4803F044
:1007A00051FC18B9444800F087FB64E743491848F6
:1007B00003F048FC18B9424800F07EFB5BE7414972
:1007C000134803F03FFC044628B93F4800F074FB8F
:1007D0002D4B1C604FE73D490D4803F033FC10B929
:1007E000294B186047E73A49094803F02BFC18B930
:1007F000384800F061FB3EE73749054803F022FC2A
:1008000000287FF438AF354B186034E76C0EFE1FBC
:10081000700EFE1FD0350900740EFE1F9F01FE1FD3
:10082000403803209801FE1FD8350900500EFE1FE6
:10083000E4350900B4720900E835090084410A0072
:10084000EC350900B05704202C0EFE1F1C0EFE1FB5
:10085000A8C90900240EFE1FC03509007E0EFE1F28
:100860007C0EFE1F940EFE1FC8350900B101FE1F4D
:10087000760EFE1FF8350900FC350900D05704201C
:1008800010360900143609004C0EFE1F6D050000DD
:10089000DC350900283609002C3609007C410A00A5
:1008A000403609006C5B090054360900E843090032
:1008B00084360900983609009C3609003C7F0900FF
:1008C000C4360900E8360900EC360900244C09005A
:1008D000184409000437090024370900BC01FE1F31
:1008E000900EFE1F8C0EFE1F70B5124C256840F254
:1008F000555363F31C052B0E0E4603F0DF03014630
:100900006FF38613324604F1080025602671E37008
:1009100003F026FA084B224618680021102300F045
:100920005DFE08B1002070BD044803F06BFEFF209F
:1009300070BD00BF5C0EFE1F900EFE1F3037090019
:1009400030B52648264C83B000F046FD20600028D4
:1009500033D04FF4A06100F06DFD224D00282860D7
:100960001FDB2149206800F09BFE00231A461F4927
:100970001F4801F0B5FF00221521206800F068FE35
:10098000152214238DE80C001A491B484FF44063CC
:10099000002205F065FAE0B105F09EF9287803B071
:1009A00030BD164803F02EFE154803F02BFE154807
:1009B00003F028FEFF2003B030BD104803F022FEF4
:1009C000114803F01FFE0F4803F01CFEFF2003B088
:1009D00030BD0E4803F016FEE0E700BF58370900AF
:1009E000900EFE1F880EFE1F5D050000AC3709004B
:1009F0002C0EFE1FD1050000B83709006037090032
:100A00008C3709008437090070370900C0370900A6
:100A100008B50021084802F007FE084B186000B135
:100A200008BD074803F0EEFD064803F0EBFD06485D
:100A300003F0E8FDFF2008BDE0370900203D03205A
:100A400060370900EC3709008437090010B51B4CEA
:100A50001B491C4821F08EFB89F028FE00F07AF932
:100A6000FFF76EFF00F054FB00F0B2FA00F0ECF973
:100A7000FFF7CEFF53F036F823682BB1642005F062
:100A800037FC2368002BF9D10F4B01221868642131
:100A900055F0CCFB0D4B0E49186859F047FB0D483B
:100AA00000F00AFA4FF4FA6005F022FC0A4B01212B
:100AB0001868BDE810407BF087BF00BFBC01FE1F77
:100AC00008380900143809005C380320283803204E
:100AD000243809001C3809002C380320F0B53C4E9E
:100AE0003C4A3368A3B002EB030C0020D35C01AD99
:100AF000624607464FF00A0EB3B1022F14DC5C2B9E
:100B000038D02A2B3CD0190640D451782B700132B2
:100B100001300B4601350F28EED185F800E0013792
:100B200001350020002BE8D10027CCEB02024FF06A
:100B3000FF3129482F70D4B201F0E2FF4FF4FA6080
:100B400005F0D6FB01A800F0B7F900F069F9234BD6
:100B500001A9186859F0EAFA54B133681D481C4DD0
:100B60001C44346003F084FA3368984221D82F6023
:100B700023B0F0BD51786E29C8D193780232BBE71B
:100B800051782A29C2D193780232B5E7DF2B0DD9EB
:100B900051780029C8D09478002CC5D02B7069708A
:100BA000AC70D378013003350332B4E753780132A7
:100BB000B1E760F019FD0121044660F081FD00F00D
:100BC0002FF92046064960F063FD23B0F0BD00BF59
:100BD0009C0EFE1FCC18FE1F243D03201C38032052
:100BE000DD0A00002DE9F0431E4E1F4CDFF88C801B
:100BF0001E4FA3B033681E4D812201A84FF000099B
:100C000063B3237898F800E003EB83119E4507EB6C
:100C100041011ED003F0D6F92378164A8DF885904D
:100C2000013382FB0321DA17C2EBE10202EB8202FD
:100C3000A3EB820301A981222846237003F0C2F9A5
:100C40000D4B85F881904846C3F80090FFF746FFAA
:100C5000D0E741F2707005F04BFBCBE723B0BDE865
:100C6000F08300BFA00EFE1F990EFE1FA40EFE1FF4
:100C7000CC18FE1F676666669C0EFE1F980EFE1F50
:100C800070B5154E154C3378154D5A1C84FB024136
:100C9000D417C4EBE10404EB84042D78A2EB8404A4
:100CA000AC4213D00F4D03EB83130146812205EBB9
:100CB000430003F087F93378347003EB831305EBBB
:100CC0004305002385F88130012070BD064803F0FC
:100CD00099FC002070BD00BF980EFE1F6766666617
:100CE000990EFE1FA40EFE1F3438090070B5124C79
:100CF000124E1349002382B001251A462046356062
:100D000001F0EEFD14220A238DE80C000D490E4877
:100D100000224FF4606305F0A3F80C4B186004F058
:100D2000DBFF0B4B294618687BF04EFE204602B0D5
:100D3000BDE8704002F0F4B8243D0320A00EFE1F71
:100D40005C380900E50B000064380900443D0320CD
:100D500020380320002238B511461248124D01F008
:100D600035FE286098B1114800F036FBA0B1002193
:100D700000F060FB044620B9286802F0D1F8204654
:100D800038BD0A490A4803F03DFCFF2038BD094838
:100D900003F038FCFF2038BD0449074803F032FC5B
:100DA000FF2038BD703809005019FE1F983809001F
:100DB000AC380900803809009C38090070B5084C2F
:100DC00008482146002503F01DFC21462570072315
:100DD0004FF4FA720448BDE8704034F0DFBC00BF45
:100DE000483D0320689C0900B439042008B561F02F
:100DF0001FFB084B1B6823B1074A1268801A834205
:100E000000D308BD012200210448BDE8084038F0A5
:100E100081B900BFC401FE1F5419FE1FF43C042019
:100E200008B561F005FB054A054B106019880548B7
:100E30000122BDE8084038F06DB900BF5419FE1F0B
:100E4000C001FE1FF43C042010B582B006230093BD
:100E500000224FF47A7310491048114C05F074FBCE
:100E6000206068B10F4803F0CDFB0F4803F0CAFBC8
:100E70000E4803F0C7FB206805F09CFB02B010BDD4
:100E80000B4803F0BFFB0B4803F0BCFB074803F023
:100E9000B9FBFF2002B010BDED0D0000C8380900FD
:100EA0005819FE1F0039090010390900843709005C
:100EB000D4380900E4380900F0B51C4C0146812201
:100EC0009FB0204603F07EF82368002284F881203A
:100ED0004BB120460A2B18BF236050F8043F18BFBF
:100EE0000434002BF6D100252560104803F0C0F82B
:100EF0000523C4B2023022468DF80200FD270DEB17
:100F00000300012609498DF804308DF801508DF851
:100F100000708DF8036002F023FF054A631D294627
:100F200010686A4600F05AFB1FB0F0BD5C19FE1F46
:100F3000403F0320184D194C194EDFF878A080B5BA
:100F4000184FA946A0464FF0FF31174801F0D8FDD1
:100F500022683B6830682A44002100F005FB2368C2
:100F60000344EA18236012F8012C242AEBD1002252
:100F700009490E4809F80320C8F8002003F042FB95
:100F800005490B4803F032F80221DAF8000002F0BC
:100F90007FFBFFF745FFD6E7081AFE1F001AFE1F6A
:100FA0003C3F0320041AFE1FE019FE1F9CB10900FC
:100FB000784E0420203D032008B5034B03481960F8
:100FC00001F0AEFF002008BD041AFE1FE019FE1F4D
:100FD00010B52248224C82B000F0FEF9206080B3A8
:100FE0004FF4007100F026FA00281EDB1D4A20682D
:100FF000032100F02DFB20681B4900F051FB00236A
:101000001A461A491A4801F06BFC16220A238DE889
:101010000C00184918484FF4C063002204F020FF68
:1010200004F05AFE002002B010BD144803F0EAFAA2
:10103000134803F0E7FA134803F0E4FAFF2002B084
:1010400010BD0E4803F0DEFA0F4803F0DBFA0D483E
:1010500003F0D8FAFF2002B010BD00BF3C390900F0
:101060003C3F032030390900B90F00008C390900DA
:10107000E019FE1F350F00009439090060370900A0
:1010800068390900843709004439090008B5034B61
:101090000348196001F044FF002008BD2C1CFE1F0E
:1010A0000C1CFE1F80B5134C134F144EDFF85C80F0
:1010B000002503E04A2B15D0FFF7B2FE4FF0FF31B9
:1010C0000F4801F01DFD3B680A4A3068002100F01E
:1010D0004BFA034607490B48E55403F093FA23788B
:1010E0004F2BE7D1D8F80030002BE5D0064801F0AF
:1010F00017FFE1E7FC1BFE1F2C1CFE1F403F0320D7
:101100000C1CFE1F689C0900243D0320A00EFE1F3E
:1011100010B52248224C82B000F05EF9206080B306
:101120004FF4007100F086F900281EDB1D4A20688C
:10113000032100F08DFA20681B4900F0B1FA00236A
:101140001A461A491A4801F0CBFB16220A238DE8E9
:101150000C00184918484FF4C063002204F080FEC8
:1011600004F0BAFD002002B010BD144803F04AFAA2
:10117000134803F047FA134803F044FAFF2002B083
:1011800010BD0E4803F03EFA0F4803F03BFA0D483D
:1011900003F038FAFF2002B010BD00BFA8390900E3
:1011A000403F03209C3909008D100000B037090032
:1011B0000C1CFE1FA5100000F8390900603709005B
:1011C000D439090084370900B0390900014B186887
:1011D000704700BF341CFE1F154B1B6810B503B1D0
:1011E000984705F03BFC134A13680133136004462B
:1011F00004F06CFD436D013B0246436533B120466C
:1012000005F030FCBDE8104005F0FCBA90F8343031
:10121000016D416543F00803204682F8343005F043
:1012200021FC04F097FABDE8104005F0EBBA00BFCE
:10123000301CFE1F341CFE1F002818DB10B40D4CA0
:10124000C11784FB0023C1EBA3114FF47A7202FB98
:1012500001F1401A02FB00F202F2E73384FB03249F
:10126000DB17C3EBA41358185DF8044B70474FF01D
:10127000FF307047D34D6210014B1868704700BFB4
:10128000341CFE1F0020704738B5064C064DAC429A
:1012900004D254F8043B9847AC42FAD3BDE8384036
:1012A00033F062BE74350900BC3509000020704778
:1012B000002070470020704738B5054C054DAC4202
:1012C00004D254F8043B9847AC42FAD338BD00BF6F
:1012D0005C3509007435090010B582B005F0BEFB1D
:1012E00083F002FF03F0B4F905F08CFB04F0DAF9A7
:1012F0000A2214238DE80C000D490E484FF4C063F8
:10130000002204F0ADFD044658B1204604F0E4FC90
:1013100005F07EFB00F02AFA04F0DAF9002002B0B2
:1013200010BDD6220449054803F044FBEDE700BF99
:1013300089120000003A0900183A0900083A090029
:10134000E0B1F8B50E46044609213046174604F0D0
:1013500029F9054678B920463246092103F078FF7D
:1013600004F14403A576E7822583E56325642846D6
:10137000A3646364F8BD4FF0FF30F8BD4FF0FF3059
:10138000704700BF10B50446B8B1204604F006F916
:10139000092804D057220C490C4803F00BFB2046C7
:1013A00004F0EAF820B958220749094803F002FB83
:1013B000204603F0E9FF002010BD562202490548EF
:1013C00003F0F8FAE1E700BF803A0900983A090013
:1013D000D43A090060AD0900092104F0E3B800BF68
:1013E00038B50446D0B1626A7AB1E38ADB0602D529
:1013F0000025284638BD20469047054640B9E38A77
:1014000043F01003E382284638BD1546284638BD10
:1014100002462146044803F0F5F8EAE7AB22034907
:10142000034803F0C7FADEE7303B0900983B0900A8
:1014300060AD090070B50E46044600284ED0204627
:1014400004F0ACF8092804D0D1222949294803F036
:10145000B1FAE38ADA060AD4626A2AB120469047D2
:101460000546002833D1E38A43F01003E3821D07C9
:1014700013D4228B110713D582EA060140F60F73AD
:101480000B406BB90025A37E013342F00802DBB2AA
:101490002283A3767BB1284670BD238B180723D403
:1014A000A36A83B1314620469847054608B1831D9B
:1014B000F1D1228BE7E740F203120D490E4803F009
:1014C00079FA284670BD40F60F723240DAE70246DC
:1014D00021460A4803F096F8284670BDD0220449F8
:1014E000074803F067FAAAE76FF0060070BD00BF77
:1014F0002C3A0900983A0900683B0900303B090082
:1015000060AD090010B50446F0B1204604F046F87D
:10151000092805D040F217121049114803F04AFA81
:10152000A37EC3B1013BDBB2A3765BB9E36A2BB107
:101530002046984710B1831D01D010BD0020002324
:10154000238310BD002010BD4FF48B720349054862
:1015500003F030FAD9E74FF0FF3010BD4C3A0900E4
:10156000983A090060AD09002DE9F0410E46174692
:101570009846044620B3204604F010F8092805D008
:1015800040F245121249134803F014FAA37E4BB1FE
:10159000256B75B143463A4631462046AC46BDE818
:1015A000F04160474FF0FF3002F07AFB0020BDE8C9
:1015B000F0816FF0050002F073FB0020BDE8F081C0
:1015C0004FF4A2720249044803F0F4F9D3E700BFD4
:1015D0003C3A0900983A090060AD09002DE9F04154
:1015E0000E4617469846044620B3204603F0D6FF21
:1015F000092805D04FF4B8721249134803F0DAF9FC
:10160000A37E4BB1656B75B143463A4631462046E1
:10161000AC46BDE8F04160474FF0FF3002F040FBC0
:101620000020BDE8F0816FF0050002F039FB0020DA
:10163000BDE8F08140F26F120249044803F0BAF9A4
:10164000D3E700BF5C3A0900983A090060AD090091
:1016500070B50D461646044690B1204603F09EFF35
:10166000092805D04FF4CA720A490B4803F0A2F9C1
:10167000A36B63B1324629462046BDE87040184747
:1016800040F293120349054803F094F9E5E76FF03F
:10169000050070BD6C3A0900983A090060AD090078
:1016A00038B50D46044668B1204603F077FF092897
:1016B00005D04FF4D8720749074803F07BF9E5617C
:1016C000002038BD40F2AF120249044803F072F91D
:1016D000EAE700BF7C3B0900983A090060AD0900C9
:1016E000F8B51A4F1A4C04F1100554F8043B03B135
:1016F0009847AC42F9D13C68BC42A4F11405F1D042
:1017000005F0ACF9236862685A606268136064602F
:10171000246005F0A7F92846002DE3D0D5F88460B1
:1017200003F02AFF012804460BD0284606B1B04733
:10173000002CE0D1A86A03F0ADF8284603F0E6FEDD
:10174000D9E7284603F020FEEFE700BFC801FE1FDF
:10175000C81DFE1F044B1A6800F114015160196086
:1017600042618361704700BFC801FE1F30B587B07A
:101770000D4C0E4A04A80023082102F003FF1F2588
:1017800020214FF480720A4B0391019204A9009327
:10179000084A02950023204604F018FA204604F077
:1017A0009BFA07B030BD00BF381CFE1FA83B0900E4
:1017B000C81CFE1FE11600002DE9F04F83B08DE834
:1017C000060099460546002800F00981284603F0E6
:1017D000E5FE052805D040F63D129249924803F0F7
:1017E000E9F8019B002B36D104F070FA8F4B1B688F
:1017F00004460BB12846984705F030F96B8C2A8CCB
:10180000934207464FD0AC8CE869009E40F82460B4
:10181000611C89B28A429CBF0022AA844FF6FF72E3
:1018200088BFA984934200F09F802A46013352F872
:10183000140F6B84904200F0D9800024C4611438E6
:1018400004F0BCFD384605F00DF903F083FF204697
:1018500003B0BDE8F08F02F0D7F8064605F0FEF8B9
:10186000044604F053F9002840F0A380012E00F054
:10187000C28005F0F3F8064604F028FA002800F0CC
:10188000C58005F0EBF8074602F0B2F8002840F0FA
:101890009B80384605F0E6F8304605F0E3F8204630
:1018A00005F0E0F8A0E7019B002B5ED06FF0080880
:1018B0000026C4F83080002B56D094F8343095F8C8
:1018C00009A05B0705F1280B56D5BAF1000F13D01C
:1018D000BAF1010F5FD1AB6A9B450DD094F835107A
:1018E00093F821208A4204D95BE093F821208A42B0
:1018F00057D81B689B45F8D1EA6A04F114031360BA
:10190000A261EB62C4F814B0019B002B0CDDFFF761
:101910005DFC04F1580B064601AA5846002104F06C
:1019200011FF584604F046FE384605F09BF803F0D8
:1019300011FF206B00288BD105F090F8019B002B44
:10194000074607DDFFF742FC019B861B9B1B48BF38
:10195000002301936B8C2A8C9A427FF454AF019B35
:10196000C4F83080002BA8D1384605F07BF86FF022
:10197000020003B0BDE8F08F4946204604F090FB1A
:101980000028A2D00090384605F06CF8009B18465D
:1019900003B0BDE8F08FB2222549264803F00AF8CB
:1019A000B2E7596804F114020A60A1615A606361E8
:1019B000AAE71C49204802F025FE4FF41462194999
:1019C0001C4802F0F7FF51E716491C4802F01AFEC6
:1019D0004FF414621349174802F0ECFF59E740F640
:1019E0003C121049164802F0E5FFEFE6384605F0D4
:1019F00039F800202CE70B49124802F003FE4FF49F
:101A0000146208490B4802F0D5FF32E705490E4839
:101A100002F0F8FD4FF414620249064802F0CAFFD2
:101A20002FE700BF403C0900203D0900483F03204C
:101A3000B03C09008C3E0900643D0900F03D0900FE
:101A4000103D0900903D0900B83D09002DE9F04F17
:101A500083B08DE8060099460546002800F0038112
:101A6000284603F09BFD052805D040F661229549E4
:101A7000954802F09FFF019B002B40F0BC8004F0D2
:101A800025F9924B1B6804460BB12846984704F091
:101A9000E5FF6A8C074642B3EB8CE869298C50F865
:101AA0002300009C01339BB299422060EB849CBFD1
:101AB0000023EB842B46013A53F8280F6A8498429E
:101AC00000F0D8800023C361143804F077FC384656
:101AD00004F0C8FF7E4B1B680BB12846984703F003
:101AE00039FE002003B0BDE8F08F019B002B00F011
:101AF000CB806FF008081646C4F83080002B54D015
:101B000094F8343095F809A05B0705F1140B55D50E
:101B1000BAF1000F13D0BAF1010F5ED16B699B458A
:101B20000DD094F8351093F821208A4204D95AE058
:101B300093F821208A4256D81B689B45F8D1AA69A0
:101B400004F114031360A261AB61C4F814B0019BEB
:101B5000002B0CDDFFF73AFB04F1580B064601AAF7
:101B60005846002104F0EEFD584604F023FD3846A7
:101B700004F078FF03F0EEFD206B58BB04F06EFF1D
:101B8000019B002B074607DDFFF720FB019B861B0F
:101B90009B1B48BF002301936A8C002A7FF47CAF13
:101BA000019BC4F83080002BAAD1384604F05AFFBC
:101BB0006FF00100206303B0BDE8F08F4946204676
:101BC00004F06EFA0028A3D00090384604F04AFFD3
:101BD000009B184603B0BDE8F08FB2223D493E4855
:101BE00002F0E8FEB3E7596804F114020A60A1614B
:101BF0005A606361ABE701F007FF064604F02EFF71
:101C0000044603F083FF18BB012E42D004F026FFE8
:101C1000064604F05BF8002846D004F01FFF074694
:101C200001F0E6FE48B9384604F01CFF304604F0E7
:101C300019FF204604F016FF21E72249274802F049
:101C4000E1FC40F664221F49234802F0B3FEEAE7B4
:101C50001C49234802F0D6FC40F6642219491E486C
:101C600002F0A8FED0E74FF4266216491D4802F0A4
:101C7000A1FEF5E6384604F0F5FE154B1B68F3B1FE
:101C8000284698470020A5E704F0ECFE6FF001001D
:101C9000A0E70C49144802F0B5FC40F6642209495B
:101CA0000D4802F087FEB1E70649104802F0AAFC91
:101CB00040F664220349084802F07CFEADE718466E
:101CC00088E700BFC03B0900203D0900503F0320CA
:101CD0004C3F0320B03C09008C3E0900F03D090058
:101CE000643D0900103D0900903D0900B83D090020
:101CF0002DE9F04782B00F46904601930A9E0446B4
:101D0000002800F00181204603F048FC042805D09B
:101D100040F26F7289498A4802F04CFE01F074FE6D
:101D2000814604F09BFE054603F0F0FE002840F0DB
:101D30009980B9F1010F00F0A38004F08FFE814675
:101D400003F0C4FF002800F0E68004F087FE82461E
:101D500001F04EFE00287AD1504604F083FE48463A
:101D600004F080FE284604F07DFE002F00F0C980BC
:101D700003F0ACFF734B1B686FF00802054602636B
:101D80000BB12046984704F069FE18F0010F814618
:101D90003AD0E36907EA030297423CD0019B002B4B
:101DA00000F0C48095F8343085F84C80AF645B0750
:101DB00094F809A004F1140840F18780BAF1000FEB
:101DC0007AD0BAF1010F66D0B2225F495F4802F0C3
:101DD000F1FD019B002B09DD05F15807384601AAEA
:101DE000002104F0AFFC384604F0E4FB484604F060
:101DF00039FE03F0AFFC286B30BB04F02FFE8146A8
:101E0000CEB1AB6C336016E018F0020F6AD0E36914
:101E100017EA0302C2D0002129630EB13260E369E0
:101E200085F84C803B4018F0040FAB6403D0E369A5
:101E300023EA0707E761484604F014FE444B1B6899
:101E40000BB120469847286B02B0BDE8F0873B49AC
:101E5000404802F0D7FB40F2727238493B4802F02A
:101E6000A9FD79E735493C4802F0CCFB40F272729B
:101E70003249364802F09EFDB9F1010F7FF45DAFA3
:101E80002E49364802F0BEFB40F272722B492F48B1
:101E900002F090FD51E7636998450DD095F8351033
:101EA00093F821208A4204D923E093F821208A4222
:101EB0001FD81B689845F8D1A26905F11403136077
:101EC000AA61A361C5F8148083E70B99284604F042
:101ED000E7F8074600283FF471AF484604F0C2FD1A
:101EE0003846B1E740F291721449184802F062FD99
:101EF00054E7596805F114020A60A9615A606B61E0
:101F000067E74FF0FF309FE740F26E720B491448CD
:101F100002F050FDF7E60949124802F073FB40F267
:101F200072720649094802F045FD0EE76FF00104A0
:101F300048462C6304F096FD204685E7303C0900B6
:101F4000A43E0900503F0320B03C09008C3E09002C
:101F50004C3F0320F03D0900643D0900903D09001D
:101F6000903E0900B83D09002DE9F04383B002AB73
:101F7000044603F8011D164602211A4604F034F8FF
:101F800094F834305A0706D5656C25B1284603F01D
:101F900005FB032802D003B0BDE8F0836369A269A2
:101FA0005A60A269136094F8343004F11408C4F83C
:101FB0001880C4F814805B0795F8099005F11407A0
:101FC00046D5B9F1000F3BD0B9F1010F27D0B222AD
:101FD0002849294802F0EEFC6B699F4247D093F8EC
:101FE0002130286A6B77054690F8361055F83C3F4B
:101FF000AB420CD013F8082C13F8074C1B68A24214
:1020000028BF2246914228BF1146AB42F2D190F838
:1020100035308B42BFD03246FFF7A6FFBBE76B6976
:102020009F420DD094F8351093F821208A4204D9AC
:1020300015E093F821208A4211D81B689F42F8D1FD
:10204000AB69C3F80080A361C5F818806761C3E776
:102050003146204604F024F80028B2D09BE75A68A5
:10206000C2F80080A261C3F804806361B4E7FF2373
:10207000B7E700BFB03C09008C3E09002DE9F04FE6
:1020800085B016460191044601F0BEFC074604F0F7
:10209000E5FC054603F03AFD002840F00F81012FD2
:1020A00000F0198104F0DAFC074603F00FFE002867
:1020B00000F0138204F0D2FC804601F099FC002865
:1020C00040F0F180404604F0CDFC384604F0CAFCF4
:1020D000284604F0C7FC002C00F0F881204603F0ED
:1020E0005DFA032805D040F29542A149A14802F0CB
:1020F00061FC03F0EBFD054604F0B0FC9E4B1B6851
:1021000007460BB120469847236A00229D422A6366
:1021100000F0C281002B00F0A380019B002B00F097
:102120009B8295F8343095F8359094F809A05A07B9
:1021300004F1140840F18580BAF1000F15D0BAF10E
:10214000010F40F0D380636998450ED095F83510A3
:1021500093F821208A4205D9B0E193F821208A42E0
:1021600000F2AC811B689845F7D1A26905F1140310
:102170001360AA61A361C5F814806C64637F4B454A
:1021800007D9266A84F81D9096F835304B4500F241
:10219000B380019B002B09DD05F15806304601AAEA
:1021A000002104F0CFFA304604F004FA384604F077
:1021B00059FC03F0CFFA04F051FC2B6B0746002BBF
:1021C00063D0266A636996F8351095F835209845EE
:1021D00014BF93F82130FF23914263772AD134460C
:1021E00096F8360054F83C3FA3420CD013F8082C64
:1021F00013F8071C1B688A4228BF0A46904228BF72
:102200001046A342F2D196F83530834212D004AA88
:10221000022102F8020D304603F0E6FE96F8343053
:10222000580707D5746C2CB1204603F0B7F9032882
:1022300000F05E81384604F015FC286B05B0BDE85F
:10224000F08F3146284603F02BFF064600283FF466
:1022500073AF384604F006FC304605B0BDE8F08F99
:10226000237F2562FF2101228B426177A27704D070
:1022700095F835209A4200F2F781EA6B04F12403C5
:102280005360626245F83C3FA562384604F0EAFBC1
:102290003A4B1B68002B00F00D8120469847002028
:1022A00005B0BDE8F08F3249354802F0ABF940F295
:1022B00091422F49334802F07DFB03E72C49324815
:1022C00002F0A0F940F2914229492E4802F072FB37
:1022D000012F7FF4E7AE26492C4802F093F940F233
:1022E00091422349274802F065FBDBE6B2222849E8
:1022F000244802F05FFB40E704AA022102F8049D93
:10230000304603F071FE96F834305B077FF541AF3D
:10231000D6F84490B9F1000F3FF43BAF484603F0C4
:102320003DF903287FF435AF7369B2695A60B26929
:10233000136096F8342006F1140BC6F818B0C6F8EE
:1023400014B0500799F8093009F1140A40F17A8164
:1023500043B3012B40F00882D9F814309A4521D0BC
:1023600096F8351093F821208A4218D90EE200BF62
:10237000D43C0900FC3E0900503F03204C3F0320A1
:10238000F03D09008C3E0900643D0900903D0900C4
:10239000B03C090093F821208A4200F2F7811B68C3
:1023A0009A45F7D1D9F81830C3F800B0B361C9F82D
:1023B00018B0C6F814A0D9F814309A4500F0E4819A
:1023C00093F82130D9F8206089F81D30B64696F888
:1023D00036005EF83C3F73450CD013F8082C13F818
:1023E000071C1B688A4228BF0A46904228BF104635
:1023F0007345F2D196F8353083423FF4CAAE04AA51
:10240000022102F8030D304603F0EEFD96F8343059
:1024100059077FF5BEAED6F84490B9F1000F3FF4EE
:10242000B8AE484603F0BAF803287FF4B2AE736939
:10243000B2695A60B269136096F8342006F1140A42
:10244000C6F818A0C6F814A0520799F8093009F187
:10245000140B40F1C581ABB1012B40F0FB81D9F8E1
:1024600014309B450ED096F8352093F821109142F8
:1024700005D9BFE193F82110914200F2BB811B689E
:102480009B45F7D1D9F81830C3F800A0B361C9F85B
:1024900018A0C6F814B0B4E1A37FFF2B00F07E8132
:1024A0000133A377384604F0DDFAC24B1B68002BDA
:1024B0007FF4F3AE184605B0BDE8F08F596805F11A
:1024C00014020A60A9615A606B6156E640F29442B8
:1024D000B949BA4802F06EFA00E6B749B84802F0C6
:1024E00091F840F29142B449B64802F063FAE1E54E
:1024F0007369B2695A60B269136096F8343006F1B4
:102500001409C6F81890C6F81490590794F809A051
:1025100004F1140840F18E80BAF1000F15D0BAF121
:10252000010F40F01B81636998450ED096F8351075
:1025300093F821208A4205D91CE193F821208A4290
:1025400000F218811B689845F7D1A369C3F8009081
:10255000B361C4F81890C6F814806369984500F018
:10256000118193F82130266A6377344696F8360055
:1025700054F83C3FA3420CD013F8082C13F8071C66
:102580001B688A4228BF0A46904228BF1046A342D1
:10259000F2D196F8353083423FF44CAE04AA0221C2
:1025A00002F8010D304603F01FFD96F834305A074B
:1025B0007FF540AE746C002C3FF43CAE204602F038
:1025C000EDFF03287FF436AE7369B2695A60B269D1
:1025D000136096F8343006F11408C6F81880C6F86F
:1025E00014805B0794F809A040F16D8104F114098F
:1025F000BAF1000F15D0BAF1010F40F05E816369A6
:1026000099450ED096F8352093F82110914205D9BE
:1026100026E193F82110914200F222811B6899452E
:10262000F7D1A369C3F80080B361C4F81880C6F875
:1026300014901CE10221304603F032FD00283FF4E3
:102640006BAFF7E502213046009303F029FD009BB4
:1026500000283FF47DAE9CE56FF0010438462C6302
:1026600004F000FA2046E9E504AA022102F8053D3B
:10267000284603F0B9FC95F8343058077FF5FDADD6
:10268000D5F84480B8F1000F3FF4F7AD404602F0B2
:1026900085FF03287FF4F1AD6B69AA695A60AA69C6
:1026A000136095F8343005F11409C5F81890C5F891
:1026B0001490590798F809B008F1140A47D5BBF1EE
:1026C000000F14D0BBF1010F6ED1D8F814309A4529
:1026D0000DD095F8351093F821208A4204D975E081
:1026E00093F821208A4271D81B689A45F8D1D8F80E
:1026F0001830C3F80090AB61C8F81890C5F814A062
:10270000D8F814309A4569D093F82130D8F82000D1
:1027100088F81D30844690F836105CF83C3F9C45A4
:102720000CD013F8082C13F807EC1B68724528BF6F
:102730007246914228BF11469C45F2D190F835303F
:102740008B423FF49AAD3246FFF70EFC95E53146D9
:10275000284603F0A5FC0028B1D08EE5B2221A4924
:10276000184802F027F9F8E6B2221749154802F096
:1027700021F920E65A68C2F80090B261C3F80490CB
:102780007361EAE6FF23EEE6FF231BE65A68C2F810
:1027900000B0B261C3F804B073610CE6384604F0CF
:1027A00061F96FF0020049E5B2220749054802F0DD
:1027B00001F9A5E74C3F0320D43C0900E83E09009D
:1027C000B83D09008C3E0900B03C09005A68C2F8C7
:1027D0000090AA61C3F804906B6191E7FF2395E72D
:1027E00002213046009303F05BFC009B00283FF47D
:1027F00032AECEE45A68C2F800A0B261C3F804A0B9
:102800007361D9F814309B4522D093F82130D9F860
:10281000200089F81D30024690F8361052F83C3FEF
:1028200093420CD013F8086C13F807EC1B6876453C
:1028300028BF7646B14228BF31469342F2D190F884
:1028400035308B423FF4A5AC0222FFF78DFBA0E4AC
:10285000FF23DCE7B2222049204802F0ABF8D0E7A2
:102860005A68C2F80080B261C3F80480736163697A
:10287000994520D093F82130206A6377024690F87A
:10288000361052F83C3F9A420CD013F8084C13F81B
:10289000076C1B68B44228BF3446A14228BF2146BA
:1028A0009A42F2D190F835308B423FF4C3AC022209
:1028B000FFF75AFBBEE4FF23DEE7B22206490748D2
:1028C00002F078F8D3E70221304603F0E9FB002854
:1028D0003FF48CAEAEE400BFB03C09008C3E090072
:1028E000F8B50F4616461D460446F0B1B6F5803FD2
:1028F00014D2012D05D940F23D120F490F4802F0C4
:1029000059F820463A46022102F0A2FC04F11403D1
:102910006572A683A36163610020F8BD4FF49E72C7
:102920000549074802F046F8E3E740F23B12024946
:10293000044802F03FF8D9E7F43C0900643F09007D
:10294000503F0900403F0900F8B5044670B32046E7
:1029500002F024FE022805D04FF4B372174918483C
:1029600002F028F8204602F007FE28B940F267126C
:102970001249144802F01EF8636904F114069E42DD
:102980000FD04FF0FF3704F069F805466069C76162
:10299000143803F013FD284604F064F863699E427E
:1029A000F1D1204602F0F0FC0020F8BD40F26512A3
:1029B0000249054801F0FEFFC9E700BF003D0900DC
:1029C000A03F0900E83F0900403F0900B1F5803F02
:1029D000F8B50D46064614461CD2012C05D940F226
:1029E00099121549154801F0E5FF04F037F807463C
:1029F00000F0FEFFA8B9384604F034F83146022052
:102A000002F0E8FC28B100F114038583447283616D
:102A10004361F8BD4FF4CC720749094801F0CAFF81
:102A2000DBE70549074801F0EDFD40F29B12024942
:102A3000054801F0BFFFDEE7B03B0900643F090035
:102A4000503F0900F03D09008C3E0900F8B50446EE
:102A5000002842D0204602F0A1FD022805D04FF404
:102A6000E3722149214801F0A5FF204602F084FDD0
:102A700060BB03F0F3FF054600F0BAFF48B11A4906
:102A80001B4801F0BFFD40F2C9121749194801F077
:102A900091FF284603F0E6FF636904F114069E42A5
:102AA0000FD04FF0FF3703F0D9FF05466069C761CB
:102AB000143803F083FC284603F0D4FF63699E4278
:102AC000F1D1204602F022FD0020F8BD40F2C712ED
:102AD0000549094801F06EFFCBE740F2C5120249F3
:102AE000064801F067FFB5E7DC3B0900A03F09009D
:102AF000F03D09008C3E090018400900403F0900E4
:102B00002DE9F04383B004460191002800F0B18024
:102B1000204602F043FD022805D04FF4FD727149B2
:102B2000714801F047FF714B1B680BB12046984775
:102B3000A38B13B9019B002B71D103F08FFFA38BE3
:102B40008046002B4CD1019B002B00F0AF8003F09E
:102B5000BDF890F834306FF0080202635B07064658
:102B600094F8099004F114074CD5B9F1000F13D073
:102B7000B9F1010F40D163699F420DD096F835102D
:102B800093F821208A4204D96BE093F821208A42ED
:102B900067D81B689F42F8D1A26906F1140313603D
:102BA000B261A3617761019B002B09DD06F1580535
:102BB000284601AA002103F0C5FD284603F0FAFCCF
:102BC000404603F04FFF02F0C5FD306B28B9484B7B
:102BD0001B686BB120469847002003B0BDE8F08326
:102BE000013BA38303F03EFF414B1B68002BF1D157
:102BF000184603B0BDE8F083B2223E493E4801F0DA
:102C0000D9FED0E7022103F04BFA05460028ACD0EC
:102C1000404603F027FF284603B0BDE8F08300F0EC
:102C2000F3FE064603F01AFF054602F06FFF38BBBD
:102C3000012E40D003F012FF064603F047F80028AB
:102C400044D003F00BFF074600F0D2FE18BB384615
:102C500003F008FF304603F005FF284603F002FFAB
:102C60006BE7596806F114020A60B1615A6073613A
:102C700099E740F2F9121B49204801F09BFE47E713
:102C800018491F4801F0BEFC40F2FF1215491A48CE
:102C900001F090FECCE713491A4801F0B3FC40F272
:102CA000FF121049144801F085FED0E703F0DAFE68
:102CB0006FF0010091E70B49134801F0A3FC40F2CB
:102CC000FF1208490C4801F075FEB3E705490F48AB
:102CD00001F098FC40F2FF120249074801F06AFE39
:102CE000AFE700BF103C0900A03F0900503F0320A0
:102CF0004C3F0320B03C09008C3E0900403F0900D6
:102D0000643D0900F03D0900903D0900B83D09000F
:102D10002DE9F04383B0002301930446002800F01E
:102D2000B180204602F03AFC022805D04FF4FD7233
:102D30007049714801F03EFE704B1B680BB1204694
:102D40009847A38B13B9019B002B71D103F086FE2A
:102D5000A38B8046002B4CD1019B002B00F0AF8051
:102D600002F0B4FF90F834306FF0080202635B07A2
:102D7000064694F8099004F114074CD5B9F1000FF8
:102D800013D0B9F1010F40D163699F420DD096F87D
:102D9000351093F821208A4204D96BE093F8212062
:102DA0008A4267D81B689F42F8D1A26906F11403D2
:102DB0001360B261A3617761019B002B09DD06F10D
:102DC0005805284601AA002103F0BCFC284603F060
:102DD000F1FB404603F046FE02F0BCFC306B28B924
:102DE000474B1B686BB120469847002003B0BDE8F5
:102DF000F083013BA38303F035FE414B1B68002B9E
:102E0000F1D1184603B0BDE8F083B2223D493E48F7
:102E100001F0D0FDD0E7022103F042F90546002879
:102E2000ACD0404603F01EFE284603B0BDE8F08358
:102E300000F0EAFD064603F011FE054602F066FECC
:102E400038BB012E40D003F009FE064602F03EFFDB
:102E5000002844D003F002FE074600F0C9FD18BB6D
:102E6000384603F0FFFD304603F0FCFD284603F032
:102E7000F9FD6BE7596806F114020A60B1615A6006
:102E8000736199E740F2F9121A49204801F092FD66
:102E900047E718491E4801F0B5FB40F2FF121549FB
:102EA000194801F087FDCCE712491A4801F0AAFB46
:102EB00040F2FF120F49144801F07CFDD0E703F007
:102EC000D1FD6FF0010091E70A49134801F09AFB28
:102ED00040F2FF1207490C4801F06CFDB3E70549C9
:102EE0000E4801F08FFB40F2FF120249064801F044
:102EF00061FDAFE7103C0900A03F0900503F0320EF
:102F00004C3F0320B03C09008C3E0900403F0900C3
:102F1000643D0900F03D0900903D0900B83D0900FD
:102F200038B5044678B3204602F038FB022805D0B5
:102F30004FF422721A491B4801F03CFD1A4B1B68E2
:102F40000BB12046984703F089FD2346054653F808
:102F5000142F9A420CD00024D461A2F1140003F083
:102F60002DFA284603F07EFD02F0F4FB204638BD22
:102F7000A38B4FF6FF7293420CD00133A38303F06F
:102F800071FD002038BD40F287220549074801F055
:102F900011FDC8E703F066FD6FF0020038BD00BF09
:102FA000643C0900A03F0900483F0320403F09005E
:102FB00038B50D460446A8B12A462046032102F042
:102FC00047F901250020FF2204F1140104F1240334
:102FD000A077627722776572A16161612062A36246
:102FE000636238BD40F269320249034801F0E2FCF5
:102FF000E2E700BFC43C0900E83E09004B698A696A
:103000002DE9F0415A608A69056A1360034601F1AF
:1030100014024A6153F8144F8A6191F8352095F8EB
:1030200035109C4214BF94F82130FF23914282B0A6
:10303000437729D12C4695F8360054F83C3FA342FB
:103040000CD013F8082C13F8071C1B688A4228BF01
:103050000A46904228BF1046A342F2D195F8353077
:10306000834211D002AA022102F8020D284602F082
:10307000BBFF95F83430580706D56C6C24B1204658
:1030800002F08CFA032802D002B0BDE8F0816B692F
:10309000AA695A60AA69136095F8343005F11407DB
:1030A000AF616F61590794F8098004F114067CD56B
:1030B000B8F1000F14D0B8F1010F40F085806369BA
:1030C0009E420DD095F8351093F821208A4204D9FC
:1030D00080E093F821208A427CD81B689E42F8D178
:1030E000A3691F60AB61A7616E6163699E4277D07F
:1030F00093F82130256A63772C4695F8360054F80A
:103100003C3FA3420CD013F8082C13F8071C1B6893
:103110008A4228BF0A46904228BF1046A342F2D1F5
:1031200095F835308342AFD002AA022102F8010D92
:10313000284602F059FF95F834305A07A4D56C6C34
:10314000002CA1D0204602F029FA03289CD16B69FB
:10315000AA695A60AA69136095F8343005F114061B
:10316000AE616E615B0794F8098004F1140724D501
:10317000B8F1000F13D0B8F1010F33D163699F424A
:103180000DD095F8352093F82110914204D954E0E0
:1031900093F82110914250D81B689F42F8D1A3693F
:1031A0001E60AB61A6616F6121E00221284602F03A
:1031B00077FF00283FF47CAF66E70221284602F043
:1031C0006FFF0028D4D05FE7B2221F491F4801F0EB
:1031D000F1FB8AE75A681760AA615F606B6184E758
:1031E000FF2387E7B2221849184801F0E3FB63691F
:1031F0009F4220D093F82130206A6377024690F8EE
:10320000361052F83C3F9A420CD013F8084C13F891
:10321000075C1B68AC4228BF2C46A14228BF214650
:103220009A42F2D190F835308B423FF42DAF022212
:10323000FEF79AFE28E7FF23DEE75A681660AA61C8
:103240005E606B61D3E700BFB03C09008C3E0900B3
:1032500038B5044603F002FC054600F0C9FBC0B9CE
:10326000284603F0FFFB2146032002F0B3F878B1B3
:1032700000F114040021FF2200F1240301258461E0
:1032800044610162817742770277836243624572CB
:1032900038BD0549054801F0B5F940F22D42024913
:1032A000034801F087FBDBE7903C0900F03D090093
:1032B0008C3E09002DE9F0410446002853D02046F9
:1032C00002F06CF9032805D040F25D4229492A48F2
:1032D00001F070FB204602F04FF900283CD103F0CA
:1032E000BDFB054600F084FB48B12249234801F0AC
:1032F00089F94FF48C621F49214801F05BFB284695
:1033000003F0B0FB03F0AAFB636904F114069E42CC
:1033100080460FD04FF0FF3703F0A0FB05466069F1
:10332000C761143803F04AF8284603F09BFB636931
:103330009E42F1D1626AA36A5360A16A04F1240338
:103340000A604046A362636203F08CFB204602F0F1
:10335000DDF80020BDE8F08140F25E4205490948F1
:1033600001F028FBBBE740F25C420249064801F04D
:1033700021FBA4E7A03C0900FC3E0900F03D090048
:103380008C3E090088400900E83E09000222FEF751
:1033900075BE00BF2DE9F041044682B0002800F060
:1033A000B680204602F0FAF8032805D040F2845295
:1033B0006149624801F0FEFA03F050FB054602F055
:1033C00085FC002800F0AA8003F048FB064600F0C8
:1033D0000FFB002873D1304603F044FB284603F06E
:1033E00041FB02F073FC054603F038FB544B1B68AD
:1033F00006460BB120469847236A9D427FD1A37FA2
:10340000013BDBB2A377002B52D1626AA16A516003
:10341000A16A0A60227F04F12407FF2AA76267627B
:1034200066D0AE4695F836105EF83C3F73450CD03A
:1034300013F8082C13F8070C1B68824228BF0246B9
:10344000914228BF11467345F2D102AA284602F8DC
:10345000011D022102F0C8FD0125636904F1140871
:10346000984537D01A685968516058680121026040
:103470005B601B60A177996A1A46A3F11400206271
:103480004F60616242F8287F0021A262196302F056
:1034900095FF636998454CD093F8213063773046A7
:1034A00003F0E0FA02F056F9002002B0BDE8F08126
:1034B000304603F0D7FA002002B0BDE8F0811E4983
:1034C000204801F09FF840F289521B491E4801F044
:1034D00071FA80E70027FF2330462762637703F005
:1034E000C1FA012D18BF3846DCD002B0BDE8F0812A
:1034F00095F83510627F914293D01D46ADE74FF0AD
:10350000FF3430462C6303F0ADFA2046D4E740F296
:10351000835209490D4801F04DFA42E706490C482B
:1035200001F070F840F289520349074801F042FA6D
:103530004AE7FF23B2E700BFEC3B0900FC3E09006D
:10354000483F0320F03D09008C3E0900E83E090099
:10355000B83D090070B50E4615460446A0B1012DD0
:1035600005D940F23D620C490C4801F023FA20468F
:103570003246042101F06CFE04F114030020657250
:10358000A3616361E06170BD40F23C62024904489E
:1035900001F010FAE3E700BF543C0900643F090062
:1035A000903E0900F8B5044670B3204601F0F6FFDE
:1035B000042805D040F266621749184801F0FAF96C
:1035C000204601F0D9FF28B940F267621249144839
:1035D00001F0F0F9636904F114069E420FD04FF038
:1035E000FF3703F03BFA05466069C761143802F003
:1035F000E5FE284603F036FA63699E42F1D1204683
:1036000001F0C2FE0020F8BD40F2656202490548A3
:1036100001F0D0F9C9E700BF203C0900A43E090031
:10362000C8400900903E0900012970B50C460546C6
:1036300005D940F294621249124801F0BBF903F037
:103640000DFA064600F0D4F978B9304603F00AFACC
:103650002946042001F0BEFE30B100F1140300221F
:10366000447283614361C26170BD0549064800F040
:10367000C9FF40F296620249044801F09BF9E4E771
:10368000743C0900643F0900F03D09008C3E0900CC
:103690002DE9F0470C46074600285ED0384601F079
:1036A0007DFF042805D040F2ED623149314801F038
:1036B00081F9002C4DD003F0D1F92F4BFA691B682A
:1036C00014430646FC610BB1384698477C6907F104
:1036D0001408A04548D04FF000094D4608E0606B43
:1036E000FA6900EA020398420DD02468A0451BD075
:1036F00094F83810CB07F2D488071ED5FA69636BAB
:103700001340F2D063634907D4F800A002D522EA3F
:103710000303FB61A4F1140002F050FEE56154467E
:10372000A0454FF00109E3D1304603F09BF9B9F110
:10373000000F09D10020BDE8F087304603F092F970
:103740006FF00900BDE8F08702F004F80020BDE842
:10375000F0874FF0FF30BDE8F08740F2EC6204499B
:10376000064801F027F999E7304603F07BF9E1E7D5
:10377000003C0900A43E0900483F0320903E090098
:1037800010B582B0049C009402240194FEF7B0FAB4
:1037900002B010BD2DE9F041884617461E469DF83F
:1037A00018500446E8B1012D05D940F665021049CC
:1037B000104801F0FFF842462046052101F048FD7F
:1037C000002004F1140204F128036572E7612684E5
:1037D000A26162616084A084E084E362A362BDE8C8
:1037E000F08140F664020249034801F0E3F8DAE7A9
:1037F000843C0900643F0900103D0900012AF8B526
:10380000154604460E4605D940F6C8021D491E4815
:1038100001F0D0F803F022F9074600F0E9F8F8B912
:10382000384603F01FF92146052001F0D3FD044678
:1038300008B304F11403B0B2657226848000A3615A
:10384000636100F067FF0546E061A8B1002304F161
:1038500028026384A384E384E262A2622046F8BD66
:1038600008490A4800F0CEFE40F6CA020549084859
:1038700001F0A0F8D4E7F8BD204601F047FE284645
:10388000F8BD00BFCC3B0900643F0900F03D0900D2
:103890008C3E0900F8B5044600285DD0204601F0B2
:1038A0007DFE052805D040F603122F492F4801F070
:1038B00081F8204601F060FE002846D103F0CEF8E2
:1038C000054600F095F848B12749294800F09AFECE
:1038D00040F606122449274801F06CF8284603F008
:1038E000C1F8636904F114069E4218BF4FF0FF3718
:1038F0000DD003F0B3F805466069C761143802F0D3
:103900005DFD284603F0AEF863699E42F1D1A36ADB
:1039100004F128069E4218BF4FF0FF370DD003F088
:103920009DF80546A06AC761143802F047FD284695
:1039300003F098F8A36A9E42F1D1E06900F0AAFF73
:10394000204601F0E3FD0020F8BD40F604120649D0
:10395000094801F02FF8B1E740F602120249074882
:1039600001F028F89AE700BFE43C0900203D090077
:10397000F03D09008C3E09006C410900103D090032
:103980000223FDF719BF00BF02230022FDF714BF79
:103990000223FEF75BB800BF10B503F05FF8074ADB
:1039A0000749137809680133DBB20446137001B18B
:1039B00088472046BDE8104003F054B8E01DFE1FC4
:1039C000DC1DFE1F10B503F049F8074B1B680446C9
:1039D00003B19847054A1378013BDBB213702046C8
:1039E000BDE8104003F03EB8D81DFE1FE01DFE1FCD
:1039F00010B503F033F8034B1C78E4B203F032F84F
:103A0000204610BDE01DFE1F002070472DE9F04F3D
:103A10008BB00546DDF85C90149FDDF854A00E468F
:103A2000144602A820220021984687F05FFE8B4BA7
:103A30008B4819F0400F18BF184619F0100B18BF2B
:103A400029F0010919F0010F0CBF4FF0200C4FF0C5
:103A5000300C19F0020E0BD0682F00F0CB80002C38
:103A6000C0F2F48019F0040F00F0BC804FF02B0E70
:103A700019F0200300930CD0B8F1020F00F0AF80D2
:103A8000B8F1100F00F0AB80B8F1080F08BF0AF1D1
:103A9000FF3A002C40F0918030238DF8083001234C
:103AA000169A9A42B8BF1A4619F0110FC2EB0A0AC9
:103AB00020D1BEF1000F6ED10AF1FF31BAF1000F33
:103AC000019140F3C98001982946471C4FF0200A14
:103AD0008E4288BF81F800A00131781A284400285E
:103AE000F6DC019820EAE07100F1FF3A4F1CC1EBCF
:103AF0000A0A3D44BEF1000F57D1009951B1B8F107
:103B0000020F7DD0B8F1080F00F09680B8F1100FC9
:103B100000F08180BBF1000F0FD1BAF1000F0AF164
:103B2000FF3140F39780AA44AE4288BF85F800C0B9
:103B300001355545F8D14FF0FF3A934280F2848029
:103B4000D31A2B443022AE4288BF2A700135AB42D3
:103B5000F9D1169A82B11A46591C07E002A8002C26
:103B6000005D107008DD01320131013C96420B46C8
:103B7000F4D8002C0B46F6DCBAF1000F62DD03EB43
:103B80000A0020229E4288BF1A7001338342F9D175
:103B90000BB0BDE8F08FBAF1000F4ADDAAF10201C7
:103BA000BAF1010F01918ED18A46AE4288BF85F8E5
:103BB00000E00AF1FF3A01359FE70DF10707002108
:103BC00000E01946B4FBF8F208FB12444B1C045DFC
:103BD00007F8014F1446002AF3D10C4660E7AAF11A
:103BE000020A56E719F0080F14BF4FF0200E4FF0ED
:103BF000000E3DE723047FF535AF6442A4B226E012
:103C0000B5423CBF30212970691C8E4201D9622126
:103C1000697002357EE7B5423CBF30212970691CCE
:103C20008E42F6D919F0400F14BF582178216970DF
:103C3000EFE70AF1FF3AB8E7B5423CBF30212970FF
:103C4000013567E71846A3E72B4682E764424FF049
:103C50002D0E0DE78A4670E78A464EE7304409008C
:103C6000444409000028B8BF40420B28DABF024B89
:103C700053F82000014870471442090060420900CF
:103C800008B5FFF7B5FE10B1044B186808BD02F087
:103C90001DF80028F8D0006B08BD00BF9C1EFE1F59
:103CA00010B50446FFF7A4FE10B1044B1C6010BD14
:103CB00002F00CF80028F8D0046310BD9C1EFE1F13
:103CC00008B5FFF795FE08B1034808BD01F0FEFFF7
:103CD0000028F9D0303008BD9C1EFE1F70B5032AA5
:103CE00082B00646C9B234D910F0030432D161F370
:103CF000070461F30F2461F317440F2A61F31F6473
:103D000019D906F11003104610380F2843F8104C4B
:103D100043F80C4C43F8084C43F8044C03F11003EF
:103D2000F2D8A2F1100020F00F0002F00F021030C4
:103D3000032A30440DD905461346043B032B45F8AE
:103D4000044BFAD8131F23F003030433184402F082
:103D500003020AB187F0CAFC304602B070BD00BF52
:103D60000F2A2DE9F0413FD941EA00039D0775D1A3
:103D700000F1100401F11003154653F8106C44F8DB
:103D8000106C53F80C6C44F80C6C53F8086C44F845
:103D9000086C103D53F8046C44F8046C0F2D03F1CB
:103DA000100304F11004E8D8A2F1100323F00F036C
:103DB00002F00F0E1033BEF1030F194403445CD917
:103DC0001E1F74460D46043C55F8047B46F8047FDC
:103DD000032CF8D8AEF1040424F003040434234483
:103DE000214402F0030200E00346551EA2B31C1D4D
:103DF0000E1DB34238BFA1422CBF01240024092A62
:103E000094BF002404F001046CB341EA0304A40746
:103E100029D1141FA4080134022D4FEA840710D9B8
:103E2000A1F1040C9E46002601365CF8048F4EF882
:103E3000048BB442F8D897423B443944A5EB0705BC
:103E40000AD00A781A703DB14A785A70012D08D00C
:103E50008A789A70BDE8F081BDE8F081551E03466E
:103E6000C5E7BDE8F081013B0A4411F8014B03F8B6
:103E7000014F9142F9D1BDE8F0817246B5E700BF2C
:103E80008842F0B502D98B18984237D3541E002AC5
:103E90004BD00B1D051DA94238BF98422CBF0123F2
:103EA0000023092A94BF002303F0010383B340EAEF
:103EB00001039B072CD1131F9B080133022C4FEAEF
:103EC00083062ED9A1F1040E0746002501355EF8C0
:103ED00004CF47F804CBAB42F8D8B2423144A4EB4C
:103EE000060400EB06031ED00A781A70C4B14A78A3
:103EF0005A70012C18D08A789A70F0BD81187AB166
:103F00009A1A13F8014D01F8014D9342F9D1F0BD11
:103F10000A44431E11F8014B03F8014F9142F9D1B5
:103F2000F0BD0346E0E7F0BDF0BDF0BDAAB130B48E
:103F3000044603780878181A0AD12244013405E0AF
:103F400014F8013B11F8015F5B1B03D19442F7D1D8
:103F500030BC7047184630BC70471046704700BFF1
:103F600091F800C0BCF1000F2BD0F0B58E460E4684
:103F700016F8013F002BFBD1B6EB0E0120D00778DD
:103F80002FB1074617F8013F002BFBD13F1AB9426A
:103F900015DC013FA1B1037863450CD102460EF157
:103FA000010305E013F8014B12F8015FA54202D1AD
:103FB0009E42F7D1F0BDB94200F10100E9DD0020D9
:103FC000F0BD704710B5044612B90CE0013A0AD0B2
:103FD00011F8013B00F8013B002BF7D1013A02D068
:103FE000194687F083FB204610BD00BF0B780246C0
:103FF0002BB102F8013B11F8013F002BF9D100234E
:1040000013707047E2B130B40B780478E31A5BB2F6
:104010004D1C7BB90A4444B90FE010F8014F15F864
:10402000013BE31A5BB22BB93CB1AA42F5D10020A7
:1040300030BC7047184630BC7047204630BC7047D3
:104040001046704703788BB10A78934204D00AE097
:1040500011F8012F934206D110F8013F002BF7D140
:104060004878181A70471046181A70470878F8E709
:10407000027832B1034613F8011F0029FBD1181A48
:1040800070471046704700BF2DE9F04F461885B0C5
:1040900014461F4680F04981894682462378002BCA
:1040A00000F036814FF0200808E0864288BF037098
:1040B000637801300134002B00F02881252BF4D1E6
:1040C00063782D2B4FF0000104F101050FD02B2B4D
:1040D00011D0202B13D0232B15D0302B17D141F02A
:1040E00001012C4663782D2B04F10105EFD141F03D
:1040F00010012C46F6E741F004012C46F2E741F0AE
:1041000008012C46EEE741F020012C46EAE7A3F136
:10411000300EBEF1090F1A4673D84FF0000E0EEBA9
:104120008E0E02EB4E0E15F8012FA2F13003092B73
:10413000AEF1300EF3D99446BCF12E0F6AD04FF099
:10414000FF3B0CF0FB03682B00F08280ACF12503F1
:10415000532B00F2EA81DFE813F07201E801E80175
:10416000E801E801E801E801E801E801E801E80107
:10417000E801E801E801E801E801E801E801E801F7
:10418000E801E801E801E801E801E801E801E801E7
:10419000E801E801E801E801E801E801E801E801D7
:1041A000E801E801E801E801E801E801E801E801C7
:1041B000E801E801E801E801E801E801E801E801B7
:1041C000BD01E801E801E801E801E801E801E801D2
:1041D000E801E801B80143017A01E801E801E801DA
:1041E000E8017A01E801E801E801E801E801B3012A
:1041F0009C01E801E801F700E8019201E801E8010B
:1042000097012A2B00F06B819C46BCF12E0F4FF0DA
:10421000FF3E94D195F801C0ACF13002092A05F1B6
:10422000010300F28880002404EB84040CEB4404B6
:1042300013F801CFACF13002092AA4F13004F3D90C
:104240001D460CF0FB03682B24EAE47B7FF47EAF71
:104250006A78A2F125036C1C532B00F27781DFE80A
:1042600013F0ED007501750175017501750175019A
:10427000750175017501750175017501750175018E
:10428000750175017501750175017501750175017E
:10429000750175017501750175017501750175016E
:1042A000750175017501750175017501750175015E
:1042B000750175017501750175017501750175014E
:1042C000750175017501750156017501750175015D
:1042D0007501750175017501750175015801BE0003
:1042E0005E0175017501750175015E01750175014C
:1042F000750175017501600162017501750172003A
:1043000075015C01750175015A011846CAEB00037D
:10431000B9F1000F05D0002286428CBF027006F86A
:10432000012C184605B0BDE8F08F82466FEA0009FF
:104330004FF0FF36B2E6BCF12A0F00F009811D46AE
:104340004FF0000BFDE625463C688D4B0437002CF2
:1043500008BF1C46BEF1000F00F00F81227852B159
:10436000234600228C4602E013F8011F11B10132EE
:104370009645F9D16146BBF1000F02DD5A45A8BF51
:104380005A46CB0610D472450EF1FF3380F2F3800B
:10439000C2EB0E030344864288BF80F800800130E0
:1043A0009842F8D102F1FF3E002A40F3E2808318E0
:1043B000864284BF217801700130984204F10104E3
:1043C000F6D1724580F2CC80C2EB0E0298189E4264
:1043D00088BF83F8008001338342F8D16DE0254621
:1043E000CA060FD40EF1FF3EBEF1000F0ADD00EB4E
:1043F0000E03864288BF80F8008001309842F8D1D1
:104400004FF0000EB0423CBF3B680370BEF1010F9D
:1044100007F1040100F1010240F3A6807044134645
:104420009E4288BF83F8008001338342F8D10EF1A9
:10443000FF3010440F466B782C463BE625468642FB
:1044400084BF252303706B7801302C4632E64FF091
:10445000000C41F002012C460A23BCF16C0F02D083
:10446000BCF1680F4BD03A6804370391CDF808B01F
:104470008DE800503146FFF7C9FA63781AE64FF02D
:10448000000C2C460A23E8E74FF0000C2C461023C2
:10449000E3E74FF0000CBEF1FF3F04BF41F0210104
:1044A0004FF00A0E3A680391CDF808B08DE800503D
:1044B000102331460437FFF7A9FA6B782C46F9E54B
:1044C0004FF0000C2C460823C7E72C4602234FF080
:1044D000000CC8E74FF0000C41F04001D6E7D7F8D8
:1044E00000E094F802C0BEF1000F07F1040704F1E8
:1044F0000205BCBFCEF1000E41F010011CE63A6887
:104500003D1D8F0754BF92B212B22F46ADE725462C
:10451000E2E70223A1E72546B8E72546B1E72546AD
:1045200097E72546CEE72546B5E76246864202D99B
:10453000252303702A78431C002A3FF4E6AE9E42EE
:1045400088BF42706B7802302C46B3E52546EDE714
:104550003C6895F802C024EAE47B04370235F0E5B4
:1045600018462C466B78A5E50F4610466B782C460E
:10457000A0E5034625E79E4616E77246FBE600BF28
:10458000684209000CB400B583B004AB53F8042BA7
:104590000193FFF779FD03B05DF804EB02B07047BB
:1045A0000EB400B582B003AB4FF0FF3153F8042BCB
:1045B0000193FFF769FD02B05DF804EB03B07047AB
:1045C000014B1868704700BFA01EFE1F70B50B4E50
:1045D0003468FCF701FF84420ED0054650B13068C4
:1045E00008B1FCF78FFF43212846FCF723FF356015
:1045F000204670BD204670BD002070BDA01EFE1F6D
:10460000704700BF0FB410B582B004AB7F2153F8E0
:10461000042B0D480193FFF737FD0C4B7F281B68D7
:1046200028BF7F2004465BB11846074A2346002175
:10463000FCF7D4FF204602B0BDE8104004B070473C
:104640000148FFF7DDFFF5E7E81DFE1FA01EFE1F76
:1046500000B50B4883B0FFF7D5FF0A48FFF7D2FF3C
:10466000094A0A4B019200930022012305210848C0
:10467000FFF7C8FF0748FFF7C5FF03B05DF804FB6D
:10468000E0420900EC4209003443090040430900BC
:10469000104309004C43090070B5C41D21F0070602
:1046A00024F00704B44282B005460DD2321B2946DD
:1046B000114800F09BF9114B0F4918600122104876
:1046C000FEF776FC02B070BD0E4B1B6800228DF821
:1046D00007202BB14FF4D0620B490C489847E5E70F
:1046E0004FF4D063084A09490948FFF78BFF9DF84A
:1046F0000730002BFBD0D9E7C8430900E41DFE1F9B
:10470000681EFE1F443F032044420900784309000D
:104710009043090070B582B0054601F0D7FA38B36E
:104720004FF0FF311C48FEF731FE1C4B0646294670
:10473000186800F099F9044676B901F0C7FA10B18B
:104740001548FEF727FE164B1B6813B12946204675
:104750009847204602B070BD124B1B6800228DF8AE
:10476000072063B140F21F620F4910489847E4E701
:104770000A4B2946186800F077F90446DDE740F255
:104780001F63094A09490A48FFF73CFF9DF80730B3
:10479000002BFBD0D1E700BF681EFE1FE41DFE1FEB
:1047A000941EFE1F443F032058440900D0430900D3
:1047B0009043090070B5037805468BB1024612F8A4
:1047C000013F002BFBD1521B541C2046FFF7A2FFD8
:1047D000064618B122462946FFF7C2FA304670BD98
:1047E0000124F2E770B582B004460D4601F06EFA7E
:1047F00010B34FF0FF311A48FEF7C8FD194B2146A0
:1048000006462A46186800F0A5FA044646B901F0A3
:104810005DFA10B11248FEF7BDFD204602B070BD32
:10482000114B1B6800228DF807206BB140F21F620C
:104830000E490F489847EAE70A4B21462A4618686E
:1048400000F088FA0446E2E740F21F63074A08498D
:104850000848FFF7D7FE9DF80730002BFBD0D6E7BE
:10486000681EFE1FE41DFE1F443F0320584409003C
:10487000D04309009043090038B501FB00F42046FD
:10488000FFF748FF054618B122460021FFF726FA38
:10489000284638BD30B51C4B1B6883B0044603B1B5
:1048A000984794B101F012FAE8B14FF0FF31174880
:1048B000FEF76CFD0546204600F0A4F93DB901F075
:1048C00005FA10B11148FEF765FD03B030BD104B7D
:1048D0001B6800228DF807204BB140F21F620D4982
:1048E0000D489847EBE7204600F08CF9E7E740F2E7
:1048F0001F63084A08490948FFF784FE9DF80730FE
:10490000002BFBD0DBE700BF981EFE1F681EFE1FBA
:10491000443F032058440900D04309009043090054
:1049200070B582B006460D46144601F0CFF920B1AD
:104930004FF0FF311948FEF729FD1EB1184B1B68D7
:10494000DB6933601DB1164B1B681B6A2B601CB101
:10495000134B1B685B6A236038B901F0B7F910B1DB
:104960000E48FEF717FD02B070BD0E4B1B6800220B
:104970008DF807202BB140F21F620B490B48984776
:10498000EBE740F21F63084A08490948FFF73AFE7F
:104990009DF80730002BFBD0DFE700BF681EFE1F2D
:1049A000E41DFE1F443F032058440900D043090082
:1049B0009043090070B50B4B82B01C6800238DF842
:1049C000073014B1A04702B070BD13460A46014635
:1049D0000548FFF717FE9DF80730002BFBD002B00B
:1049E00070BD00BF443F0320904309000A44F8B55E
:1049F00022F00703202B2DD9CC1D24F007040746F5
:104A0000A3F1200504F13800A84223D80646382235
:104A1000002120469D1BFFF761F93A4620460C21F4
:104A200000F016FCA5F11002B118A5F120030C4806
:104A30006061002744F00105A661A662E36163633B
:104A4000204672603460B760E162B5504A608A60A7
:104A50002663F8BD0348FFF7D5FD0020F8BD00BF71
:104A6000944409009C440900002900F08A802DE943
:104A7000F8430D468046002800F09C80404600F038
:104A80008DFD0C2805D04FF4907257495748FFF719
:104A900091FF404600F070FD00284AD0073525F010
:104AA00007050F2DD8F834C098BF1025654517D8D5
:104AB000D8F830E0D8F82820C5EB0C06C2EB0E037E
:104AC000B3420DD8D158CF0702EB03040BD4616871
:104AD000C81AA0F11007BD4207D90B46B342F1D95D
:104AE0000020BDE8F8836368EAE705F12006B742D5
:104AF00026D2D8F82010D8F8243008449842C8F8B4
:104B0000200088BFC8F8240005F1100048F0010318
:104B1000A6452360D8F82C1053D02044814242D3BC
:104B200004F110056A0737D163072CD12846BDE888
:104B3000F88340F221122C492D48FFF73BFFADE7E7
:104B400005F11000C618971928F0010942F80690DF
:104B50007960BB6066607B68D8F820100CF1100C9F
:104B6000634518BF9B1801F1100118BF9E60D8F86B
:104B700024300D449D42C8F82050C7D9C8F82450AD
:104B8000C4E7002070474FF4C57217491948FFF772
:104B900011FF2846BDE8F88340F2891212491648F1
:104BA000FFF708FFC0E74FF4C4720F491348FFF73F
:104BB00001FFB5E740F21F120B491148FFF7FAFE5B
:104BC0005CE78E4502D1A8E78E4509D0DEF80430B7
:104BD000D558ED0702EB030EF6D4C8F830E09CE799
:104BE000C8F8301099E700BF38480900E8440900C8
:104BF00024450900E84509009C4509004C45090089
:104C0000D8440900002800F09180F8B54407054613
:104C100040F0858055F8104C24F00104204600F047
:104C2000BDFC0C28A5F1100605D040F21322404926
:104C30004048FFF7BFFE204600F09EFC00285BD0F6
:104C4000A36A9D4250D3E26A95424DD255F80C0CAE
:104C5000195821F001018C4208D03748344940F2FC
:104C60001722FFF7A7FEA36A55F80C0C226B45F834
:104C7000104C9642226A38BF2663F11A121A0A446F
:104C80009E42226245D3E36A9E423CD2A36A55F813
:104C90000C2C99188E4212D09858C0070FD4E06A95
:104CA00081420CD0226B002091424A6808BF2663E3
:104CB000086045F80C2C49681944F01A886055F8CA
:104CC000081C581886420ED05F58FF070BD4276B7C
:104CD000BE4208BF2063002445F8104C426055F8DE
:104CE0000C2C13449960F8BD40F216221049134869
:104CF000FFF760FEA36AA9E74FF405720C4910485C
:104D0000FFF758FE9CE784220E490F48FFF752FE3A
:104D1000BCE783220B490D48FFF74CFEB3E740F296
:104D20000B2203490A48FFF745FE73E7704700BFAF
:104D300084440900484609003C470900C846090068
:104D40009046090068440900984709007447090023
:104D5000184609002DE9F8430F4616460446002878
:104D600000F0CE80204600F019FC0C2805D04FF44E
:104D7000D7726E496E48FFF71DFE204600F0FCFB1F
:104D8000002868D00736636B26F007059D426ED871
:104D9000002D00F0BE80002F00F0C1807E0777D18B
:104DA000A36A9F426DD3E36A9F4263D2D4F82880FE
:104DB00057F80C1CA7F11003C8EB0303A1F1100670
:104DC000F61AB54244D005F11C02964277D9226A00
:104DD000606B05F1100999442A44921B08EB0906FF
:104DE000226224F0010248F809207160B36047F89C
:104DF0000C9C736800F1100293421CBF4344C3F83B
:104E00000890236B9E4238BF2663B0456AD8E36A98
:104E10009E426FD2A36A72689818864202D099584F
:104E2000CD073CD5B5685819864211D05959C907E4
:104E30000ED4216B8E424FF0000108BF206348F86A
:104E4000091042607268134438469D60BDE8F883DB
:104E50003846BDE8F88340F2AF1234493548FFF7D1
:104E6000A9FD0736636B26F007059D4290D9002007
:104E7000BDE8F8834FF4E3722C492F48FFF79AFD01
:104E800094E740F2C51229492C48FFF793FD8AE7C1
:104E90004FF4E27225492A48FFF78CFD80E7E16A6A
:104EA0008842BFD0226B00219042426808BF26632F
:104EB0000160726041681944F01A8860B2E72046C8
:104EC0002946FFF7D1FD044608B3B5422A463946C4
:104ED00028BF3246FEF744FF3846FFF793FE2046D0
:104EE000BDE8F883832217491748FFF763FDE36A9B
:104EF0009E428FD3842213491448FFF75BFD89E754
:104F000040F2AD1209491248FFF754FD2AE7BDE807
:104F1000F8833846FFF776FE2846BDE8F883294631
:104F20002046BDE8F843FFF79FBD00BF7444090069
:104F3000E84409002445090000480900C847090061
:104F40001846090068440900744709009847090099
:104F5000D84409002DE9F041069F884615461C46B5
:104F60000646002838D0B8F1000F3DD075B33CB3E9
:104F700037B308213046424600F06AF9F81D20F0A8
:104F8000070024F0070106F12C03F061B161043041
:104F90007561B1FBF0F133637162B162F36259B3D1
:104FA0002B1800224442013291421B510344FAD192
:104FB000013901FB00F1002068503562BDE8F08145
:104FC00066220F490F48FFF7F5FCD2E765220C492E
:104FD0000D48FFF7EFFCCAE7632209490B48FFF7CA
:104FE000E9FCB8F1000FC1D1642205490848FFF778
:104FF000E1FC002DBBD1E9E74FF0FF31D9E700BF5D
:1050000048480900784809006448090054480900E4
:1050100094AA0A002DE9F04F83B0054601910028BB
:1050200000F0848000F052FE044601F017FDAB6AE8
:105030000746002B56D1019A002A68D09B4605F1FD
:105040002C03009304F1140837E0504601F00AFDE8
:105050002663204601F054F9EB6A019AC3F80480F4
:10506000002A6361009BC5F82C80A3610ADDFCF770
:10507000ADF83146834601AA484601F063FB484635
:1050800001F098FA384601F0EDFC00F063FB236B69
:10509000002B47D1019B002B08DDFCF797F8019B03
:1050A000CBEB00001B1A48BF0023019301F0D6FC94
:1050B000AB6A0746B3B9019B4BB301F0CFFC824604
:1050C000FEF796FC002604F158090028BDD01E49C1
:1050D0001E48FFF797FA4FF4AE721B491C48FFF7C2
:1050E00069FCB2E72C6A013BAB6234B323682B62E4
:1050F0003846256001F0B6FC164B1B68043413B12A
:10510000284621469847204603B0BDE8F08F384630
:1051100001F0A8FC6FF00100FEF7C2FD002003B013
:10512000BDE8F08F002003B0BDE8F08F40F24712D9
:1051300005490948FFF73EFC74E74FF4C472024981
:105140000648FFF737FCD1E768490900F03D090040
:105150008C3E0900A41EFE1F544809005049090056
:1051600050B3F8B5154B50F8045C1B680446061F95
:1051700013B101462846984701F070FCAB6A296AD2
:105180005A1C2B46AA6244F8041C53F82C2F2E629A
:105190009A4207460CD00023D361A2F1140001F01B
:1051A0000DF9384601F05EFCBDE8F84000F0D2BAD7
:1051B000BDE8F84001F056BC704700BFA81EFE1FB6
:1051C000224B1A7882422ED01A7C82422DD093F83C
:1051D000202082422BD093F83020824229D093F8AD
:1051E0004020824227D093F85020824225D093F865
:1051F0006020824223D093F87020824221D093F81D
:10520000802082421FD093F89020824207D093F8EA
:10521000A020824208BF0A2002D000207047092047
:1052200003EB001070470020FAE70120F8E70220A6
:10523000F6E70320F4E70420F2E70520F0E7062074
:10524000EEE70720ECE70820EAE700BFD001FE1FE9
:105250002DE9F843474B1C788C420F460546914692
:105260006CD01A7C8A426CD093F820208A426BD092
:1052700093F830208A426AD093F840208A4269D05D
:1052800093F850208A4268D093F860208A4267D011
:1052900093F870208A4266D093F880208A4265D0C5
:1052A00093F890208A4211D093F8A0208A4208BF38
:1052B0004FF00A080CD04FF4B7722F492F48FFF770
:1052C00079FB00F0F7FB00235B68FFDE4FF0090875
:1052D00003EB081800F0EEFBD8F8044008F10406D0
:1052E000B44206D0A4F10C039D4220D02468B442FD
:1052F000F8D167F07F0700F0EBFB2F7249460822D8
:105300002846FEF75FFE1E4B1B680BB128469847E8
:1053100001F0A4FBD8F8042005F10C035360EA6007
:10532000C8F804302E61BDE8F84301F09BBB40F2A1
:105330007D1211491348FFF73DFBD7E74FF00008F6
:10534000C6E74FF00108C3E74FF00208C0E74FF08F
:105350000308BDE74FF00408BAE74FF00508B7E7C8
:105360004FF00608B4E74FF00708B1E74FF0080820
:10537000AEE700BFD001FE1F98490900A849090007
:10538000AC1EFE1FC049090010B50446A8B10E4B63
:105390001B680BB1204698470023237201F05EFB87
:1053A000E26823695360216904F10C030A602361F8
:1053B000E360BDE8104001F055BB40F2AD12034977
:1053C0000348FFF7F7FAE2E7B01EFE1F104A090094
:1053D000D04909002DE9F8430546894601F03EFB16
:1053E0000646FEF705FB002866D1424C304601F028
:1053F00039FB2378AB426AD0237CAB4269D094F866
:105400002030AB4267D094F83030AB4265D094F88E
:105410004030AB4263D094F85030AB4261D094F846
:105420006030AB425FD094F87030AB425DD094F8FE
:105430008030AB425BD094F89030AB420ED094F801
:10544000A030AB4208BF0A2709D040F2D5122A4942
:105450002A48FFF7AFFA0023DB68FFDE09273F0188
:1054600004EB0708D8F80C00FFF754F9064600B320
:10547000D8F80C200021FEF731FC0023737235723E
:10548000494608223046FEF79DFD1D4B1B680BB1B7
:105490003046984701F0E2FA3C44D8F8042006F17F
:1054A0000C0304345360F260C8F80430346101F036
:1054B000D9FA3046BDE8F8830F491248FFF7A2F841
:1054C00040F2D1120C491048FFF774FA8DE700271B
:1054D000C5E70127C3E70227C1E70327BFE7042782
:1054E000BDE70527BBE70627B9E70727B7E7082782
:1054F000B5E700BFD001FE1F84490900A849090093
:10550000AC1EFE1FF03D09008C3E090010B504469C
:1055100018B394F90830002B18DB134B1B680BB140
:10552000204698470023237201F098FAE268236925
:105530005360216904F10C030A602361E36001F008
:1055400091FA2046BDE81040FFF7A4B940F21322BB
:1055500006490748FFF72EFADFE740F21222034917
:105560000448FFF727FAD4E7B01EFE1F404A09009F
:10557000E4490900D049090010B5044618B194F96E
:105580000800C00F10BD40F2352202490248FFF763
:1055900011FAF4E7244A0900D0490900007A00F022
:1055A0007F007047F8B53B4C23788B425FD0237C5B
:1055B0008B425ED094F820308B425CD094F830302F
:1055C0008B425AD094F840308B4258D094F85030E7
:1055D0008B4256D094F860308B4254D094F870309F
:1055E0008B4252D094F880308B4250D094F8903057
:1055F0008B4207D094F8A0308B4208BF0A2602D015
:105600000020F8BD09260028FBD0074601F026FA45
:105610000546FEF7EDF9F8B904EB0614284601F04B
:1056200021FA261D00F046FA6468A64203D10FE075
:105630002468A6420CD0A4F10C052846082239465D
:10564000FEF7E0FC0028F3D100F042FA2846F8BD4E
:1056500000F03EFA0020F8BD0F491048FEF7D2FFD7
:1056600040F266220C490E48FFF7A4F9D4E7002661
:10567000C9E70126C7E70226C5E70326C3E70426D4
:10568000C1E70526BFE70626BDE70726BBE70826D4
:10569000B9E700BFD001FE1F74490900F03D0900C1
:1056A0008C3E0900074A084B0021118003F58072E7
:1056B0005B601B6008339342FAD1044B00221A60EE
:1056C000704700BFB41EFE1F583F0320543F032005
:1056D00070B51B4E1B4D306801F016FC01381A4A9C
:1056E00055F83040A4F1140313600BB301F0B6F980
:1056F000236862685A606268136094F821302460FD
:1057000055F83320646005EBC305AA420AD001F0C6
:10571000A9F9032384F8203004F10800BDE87040A3
:1057200001F0E9B93368626A23EA02033360EEE705
:105730004FF4CE7205490648FFF73CF9D6E700BFA3
:10574000543F0320583F0320B81EFE1F704A090033
:105750008C4A09002DE9F04701F080F9864BB3F936
:105760000050064625B9DFF83482D8F8000020B989
:105770003046BDE8F04701F075B9DFF824A2DFF844
:10578000249201F0C1FBDAF80070013897F8343048
:1057900059F8304003F00702032AA4F1140455D04D
:1057A000A74200F0A480754B754A1B68CAF80040F8
:1057B000107013B1214638469847002D51D1002C66
:1057C00000F0BD8001F04AF96369A2695A60A269DC
:1057D000136094F8353004F11402626159F8331003
:1057E000A26109EBC303994200F0A18001F03AF9EC
:1057F00094F83430A26A23F0070343F0030384F8DB
:1058000034301378232B50D1E36993424DD9E16AA8
:1058100011448B4249D82032934203D8214659483B
:10582000FEF7F0FE584B1B78002B47D1574B1B68F7
:105830000BB13846984707F11C0004F11C0101F038
:1058400014F93046BDE8F04701F00CB997F835205F
:1058500082423CD37AD0012523F0080387F8343004
:105860009EE701F0FBF8DAF800309F4297F83430F9
:1058700023F0070372D043F0020387F834301B078C
:1058800027D597F8353009EBC30307F1140259689F
:105890000A60B9615A607B61D8F80030BA6B134373
:1058A000C8F8003001F0DEF889E721463848FEF7F5
:1058B000A9FE01F0D3F80028B4D0FEE7234604F196
:1058C0001C013A4607F11C0001F0CFF850E73C46B6
:1058D000C2E797F8352059F8321007F1140309EBA5
:1058E000C2054B60796149F83230BD61D4E701F0FF
:1058F000B5F87B69BA695A60BA69136097F83530B0
:1059000007F114027A6159F83310BA6109EBC30345
:10591000994228D001F0A6F8DAF8002092F8343045
:1059200023F0070343F0030382F8343020E7D8F86C
:105930000030A26B23EA0203C8F8003056E74FF4A8
:10594000CE7214491448FFF735F83BE703F008021C
:10595000002A0ABF3C46012500257DE743F00303EA
:1059600087F834309EE7D8F80030BA6B23EA020398
:10597000C8F80030CEE700BFB41EFE1FC01EFE1FD9
:1059800058400320BC4A0900E01DFE1FBC1EFE1F3C
:10599000A04A0900704A09008C4A0900543F0320BC
:1059A000B81EFE1F583F032070B5044600283BD0A8
:1059B00001F054F8204B1B689C4294F8343023F0DB
:1059C000070329D043F0020384F834301B0716D4B0
:1059D00094F83510194A52F8315004F1140302EBCF
:1059E000C1066B60656142F83130A661144AA16B53
:1059F0001368BDE870400B43136001F033B894F8AE
:105A000035200E4B03EBC20304F1140259680A60FF
:105A1000A1615A606361E9E743F0030384F834301D
:105A2000BDE8704001F01EB84FF4B4720549064855
:105A3000FEF7C0FFBCE700BFB81EFE1F583F0320A3
:105A4000543F0320544A09008C4A090038B50446E3
:105A500008B301F003F86269A3695360A169114BAF
:105A60000A6094F8352004F11401616153F8325052
:105A7000A16103EBC2039D4203D0BDE8384000F0B2
:105A8000F1BF094AA16B136823EA01031360BDE863
:105A9000384000F0E7BF4FF4CE7204490448FEF7E7
:105AA00089FFD6E7583F0320543F0320704A09007E
:105AB0008C4A090008B500F0D1FF044A138801336D
:105AC0001380BDE8084000F0CDBF00BFB41EFE1F2C
:105AD00008B500F0C3FF0B4A1388013B1BB2002B33
:105AE000138003DDBDE8084000F0BCBF0023138035
:105AF00000F0B8FF044B1B681BB1BDE80840FFF77E
:105B000029BE08BDB41EFE1FB81EFE1F014B18881B
:105B1000704700BFB41EFE1F38B5044660B394F84A
:105B200034305B0722D52046FFF738FD012804D02A
:105B3000892214491448FEF73DFF00F08FFF626987
:105B4000A3696FF0010121635360A16904F114039B
:105B50000A600546A36120466361FFF725FF2846DA
:105B600000F080FFBDE83840FFF7F4BD882205490A
:105B70000648FEF71FFFD6E7872202490448FEF7D2
:105B800019FFCCE7544B0900A84B0900644B0900EE
:105B90008C4A090038B50C4B1C6800F05FFF0546C5
:105BA0002046FFF753FF04F1580000F08FFC01235B
:105BB00084F834302046FBF7CDFD284600F052FF34
:105BC000BDE83840FFF7C6BDB81EFE1F2DE9F04FF7
:105BD00083B08B46924699460C9EDDF834809DF842
:105BE00038500F9F0446002851D0002E57D05A46F7
:105BF00001212046FFF72CFB04F11401A662424666
:105C00003046A1616161C4F820A02321C4F824902A
:105C1000C4F82C80FEF762F8E66AA26A234B616A38
:105C2000206A043E324400F0BBFF1F2DE06128D8FB
:105C3000002204F13C03A2636264A26484F84C2055
:105C4000226384F83420C4F88420C4F888202364B4
:105C5000E36384F8365084F835502765676523463A
:105C6000019200922146124A04F1580000F0ECFB28
:105C7000104B1B680BB120469847002003B0BDE8CD
:105C8000F08FC2220C490D48FEF794FED0E74FF486
:105C9000A2720B490B48FEF78DFE002EA7D140F2F1
:105CA000451207490848FEF785FEA0E7955B00000E
:105CB000195B0000C41EFE1F144D0900044C0900AE
:105CC000084B09008C4A0900EC4B0900014B18688D
:105CD000704700BFB81EFE1F38B50446002856D0D6
:105CE00094F834305A074BD12046FFF757FC01286F
:105CF0003ED040F2791229492948FEF75BFE94F81C
:105D00003520012393400422A36384F834202046E5
:105D1000FFF744FC012805D040F2174221492048F2
:105D2000FEF748FE94F834305B071AD500F096FE73
:105D30006269A3695360A16904F114030A6005460E
:105D4000A361636104F1580000F0BCFC284600F038
:105D500089FE2046FFF728FE134B1B680BB1204637
:105D60009847124B1B680BB1FFF7F4FC002038BDBD
:105D700094F8352004239040A06384F83430C6E7BB
